S00C00004C6162332E73726563D6
S11300000C943B000C9458000C9458000C94580029
S11300100C9458000C9458000C9458000C945800FC
S11300200C9458000C9458000C9458000C945800EC
S11300300C9458000C9458000C9458000C945800DC
S11300400C9458000C9458000C94E3010C94580040
S11300500C9458000C9458000C9458000C945800BC
S11300600C9458000C94580004020B0212021C0257
S1130070260230023A0211241FBECFEFD8E0DEBFC1
S1130080CDBF11E0A0E0B1E0E0E5FBE002C00590E7
S11300900D92A438B107D9F722E0A4E8B1E001C079
S11300A01D92A632B207E1F70E948C010C94A605BA
S11300B00C9400001F93CF93DF938091860190E00E
S11300C090932302809322028091870190E0909381
S11300D025028093240281E091E00E947C028091B9
S11300E025028F93809124028F9384E091E09F9363
S11300F08F931F9210E11F93CDE0D2E0DF93CF9353
S11301000E94AE02CE010E947C028FE99FE001971B
S1130110F1F700C00000809123028F9380912202A6
S11301208F938EE091E09F938F931F921F93DF93A1
S1130130CF930E94AE02CE010E947C028DB79EB77F
S113014040960FB6F8949EBF0FBE8DBFDF91CF913E
S11301501F91089585B18B7F85B983E60E94510272
S11301600E945302809387018FE39CE90197F1F782
S113017000C0000084E60E9451020E945302809352
S113018086018FE39CE90197F1F700C0000085B177
S1130190846085B99FEF24E38CE091502040804037
S11301A0E1F700C0000008950E949E02892BA1F18E
S11301B00E9489028D36B1F40E945A002FEF81EE1D
S11301C094E0215080409040E1F700C0000088E1B5
S11301D091E00E947C028DE391E00E947C020E94E7
S11301E0D40008958E36A1F42FEF81EE94E02150CF
S11301F080409040E1F700C0000088E191E00E9457
S11302007C028DE391E00E947C020E94D400089558
S11302108DE591E00E947C020895882324F49BB12B
S113022098609BB903C09BB1977F9BB986FF04C0BC
S11302309BB194609BB903C09BB19B7F9BB985FF25
S113024004C098B1906298B903C098B19F7D98B9E1
S113025084FF04C098B1906198B903C098B19F7E9F
S113026098B983FF04C098B1986098B903C098B155
S1130270977F98B982FF04C098B1946098B903C07D
S113028098B19B7F98B981FF04C098B1926098B9E6
S113029003C098B19D7F98B980FF04C088B1816084
S11302A088B9089588B18E7F88B908958091C00077
S11302B088238CF58091C60090ED980F9A3070F4E5
S11302C090918401933050F4E091840191E09E0F69
S11302D090938401F0E0E35EFD4F8083809184017C
S11302E08330C9F4EDE1F2E0408150E0405351091C
S11302F0818190E0C0979281880F282F220F220FCE
S1130300820F24E6429F800D1124890F805380932D
S1130310850110928401089587B18F6387B98AB1EA
S11303208C608AB988B1807C88B98BB1837F8BB9A2
S113033020E040E060E080E50E94ED0181E00E9461
S113034058020E945601809185010E940D018091FE
S11303500001813009F52FEF81EE94E021508040B7
S11303609040E1F700C0000088E191E00E947C0227
S11303708DE391E00E947C020E94AA002FEF85EA9F
S11303809EE0215080409040E1F700C000000E94B0
S1130390D400109200010BC02FEF89E698E12150A0
S11303A080409040E1F700C000000E94D4000E9409
S11303B0AA002FEF85EA9EE0215080409040E1F7AB
S11303C000C00000BECF1F920F920FB60F921124EF
S11303D00F900FBE0F901F901895E82F84FF51C007
S11303E084B18C6284B984B18F7E84B980E18CBD80
S11303F0E7708E2F90E08730910508F04BC0FC0128
S1130400EC5CFF4F0C94A8028CB58C7F8CBD8DB531
S113041081608DBD3FC08CB58C7F8CBD8DB58E7FCA
S11304208DBD38C08CB581608CBD8CB58D7F8CBD85
S11304308DB581608DBD2EC08CB581608CBD8CB5B1
S11304408D7F8CBD8DB58E7F8DBD24C08CB58160B4
S11304508CBD8CB582608CBD8DB58E7F8DBD1AC070
S11304608CB58E7F8CBD8CB582608CBD8DB58E7F36
S11304708DBD10C08CB583608CBD8DB58E7F8DBD58
S113048009C084B1806184B984B1837D84B98CB599
S11304908F7E8CBD8CB5462B242B282B20642CBD41
S11304A008958EBD08950DB407FEFDCF8EB5089551
S11304B08130D1F48AB18E7F8AB98AB182608AB9D7
S11304C01092C000E1ECF0E01082808188698083A2
S11304D0E2ECF0E0108280818660808387E690E021
S11304E09093C5008093C40008959091C00095FF37
S11304F0FCCF8093C6000895CF93DF93EC0103C033
S113050021960E94750288818111FACFDF91CF91E3
S113051008959091880180912102981769F0E091E3
S11305202102F0E0E757FE4F8081909121029F5F06
S11305309F7790932102089580E008952091880187
S11305409091210281E0291301C080E090E0089598
S1130550EE0FFF1F0590F491E02D0994AEE0B0E09A
S1130560E4EBF2E00C947D050D891E898F89988D4A
S113057026E02C831A83098397FF02C080E090E869
S113058001979E838D83AE01455E5F4F698D7A8DA1
S1130590CE0101960E94DE024D815E8157FD0AC0A4
S11305A02F813885421753070CF49A01F801E20FA2
S11305B0F31F10822E96E4E00C949905ABE0B0E0B2
S11305C0E4EEF2E00C946F056C017B018A01FC01FE
S11305D017821682838181FFCCC1CE0101963C0132
S11305E0F6019381F70193FD859193FF81917F013A
S11305F0882309F4BAC1853239F493FD859193FFB8
S113060081917F01853229F4B60190E00E94D504DE
S1130610E7CF912C212C312CFFE1F315D8F08B324C
S113062079F038F4803279F08332A1F4232D2061FB
S11306301DC08D3261F0803369F4232D216016C012
S1130640832D8260382EE32DE4603E2E2AC0F32DE4
S1130650F8601DC037FC2DC020ED280F2A3040F073
S11306608E32B9F436FC81C1232D2064322E19C098
S113067036FE06C08AE0989E200D1124922E11C0E9
S1130680EAE02E9E200D1124222EF32DF0623F2E3F
S113069008C08C3621F4832D8068382E02C0883639
S11306A041F4F70193FD859193FF81917F018111BD
S11306B0B3CF982F9F7D9554933028F40C5F1F4F30
S11306C09FE399830DC0833631F0833771F083350E
S11306D009F059C021C0F801808189830E5F1F4F42
S11306E088248394912C530113C02801F2E04F0E07
S11306F0511CF801A080B18036FE03C0692D70E062
S113070002C06FEF7FEFC5010E94CA044C01820151
S1130710F32DFF773F2E16C0280122E0420E511C14
S1130720F801A080B18036FE03C0692D70E002C0DC
S11307306FEF7FEFC5010E94BF044C01F32DF068F9
S11307403F2E820133FC1BC0822D90E0881699064F
S1130750B0F4B60180E290E00E94D5042A94F4CF6C
S1130760F50137FC859137FE81915F01B60190E078
S11307700E94D50421102A9421E0821A9108811440
S1130780910471F7E8C0843611F0893641F5F80117
S113079037FE07C060817181828193810C5F1F4F96
S11307A008C060817181072E000C880B990B0E5FC5
S11307B01F4FF32DFF763F2E97FF09C0909580952C
S11307C0709561957F4F8F4F9F4FF0683F2E2AE0C1
S11307D030E0A3010E941105882E861845C0853794
S11307E031F4232D2F7EB22E2AE030E025C0932D44
S11307F0997FB92E8F36C1F018F4883579F0B5C0D9
S1130800803719F0883721F0B0C0E92FE061BE2E9F
S1130810B4FE0DC0FB2DF460BF2E09C034FE0AC027
S1130820292F2660B22E06C028E030E005C020E162
S113083030E002C020E132E0F801B7FE07C0608179
S11308407181828193810C5F1F4F06C06081718129
S113085080E090E00E5F1F4FA3010E941105882ED7
S11308608618FB2DFF773F2E36FE0DC0232D2E7FDD
S1130870A22E891458F434FE0BC032FC09C0832D17
S11308808E7EA82E05C0B82CA32C03C0B82C01C0A2
S1130890B92CA4FE0FC0FE01E80DF11D8081803348
S11308A021F49A2D997EA92E09C0A2FE06C0B39404
S11308B0B39404C08A2D867809F0B394A3FC11C0C4
S11308C0A0FE06C0B21488F4280C922C9B180EC00B
S11308D0B21460F4B60180E290E00E94D504B394AF
S11308E0F7CFB21418F42B1802C0982C212CA4FEB4
S11308F010C0B60180E390E00E94D504A2FE17C0A8
S1130900A1FC03C088E790E002C088E590E0B6014E
S11309100CC08A2D867859F0A1FE02C08BE201C07A
S113092080E2A7FC8DE2B60190E00E94D504891410
S113093038F4B60180E390E00E94D5049A94F7CF8E
S11309408A94F301E80DF11D8081B60190E00E94C4
S1130950D5048110F5CF222009F442CEB60180E2FD
S113096090E00E94D5042A94F6CFF60186819781FF
S113097002C08FEF9FEF2B96E2E10C948B05FC01F4
S11309800590615070400110D8F7809590958E0FB6
S11309909F1F0895FC016150704001900110D8F729
S11309A0809590958E0F9F1F08950F931F93CF935B
S11309B0DF93FB01238121FD03C08FEF9FEF2CC048
S11309C022FF16C04681578124813581421753077F
S11309D044F4A081B1819D012F5F3F4F3183208377
S11309E08C93268137812F5F3F4F3783268314C032
S11309F08B01EC01FB010084F185E02D0995892B25
S1130A00E1F6D80116968D919C9117970196179649
S1130A109C938E931697CE01DF91CF911F910F91E6
S1130A200895FA01AA27283051F1203181F1E89480
S1130A306F936E7F6E5F7F4F8F4F9F4FAF4FB1E0CD
S1130A403ED0B4E03CD0670F781F891F9A1FA11DC8
S1130A50680F791F8A1F911DA11D6A0F711D811DC9
S1130A60911DA11D20D009F468943F912AE0269F8E
S1130A7011243019305D3193DEF6CF010895462FED
S1130A804770405D4193B3E00FD0C9F7F6CF462FCE
S1130A904F70405D4A3318F0495D31FD4052419337
S1130AA002D0A9F7EACFB4E0A695979587957795F4
S1130AB06795BA95C9F700976105710508959B017B
S1130AC0AC010A2E06945795479537952795BA9504
S1130AD0C9F7620F731F841F951FA01D08952F92DD
S1130AE03F924F925F926F927F928F929F92AF92BA
S1130AF0BF92CF92DF92EF92FF920F931F93CF9307
S1130B00DF93CDB7DEB7CA1BDB0B0FB6F894DEBF9D
S1130B100FBECDBF09942A88398848885F846E84C3
S1130B207D848C849B84AA84B984C884DF80EE800D
S1130B30FD800C811B81AA81B981CE0FD11D0FB616
S1130B40F894DEBF0FBECDBFED010895F894FFCF3A
S1130B50010A0D0050313A202564200D0A0050325C
S1130B603A202564200D0A000A496E677265736590
S1130B7020276D272070617261206F627365727621
S1130B80617220656C204144432E0D0A00496E6752
S1130B907265736520276E27207061726120656C11
S1130BA020636F6E7461646F722E0D0A000A456CC7
S1130BB020636F6D616E646F20696E677265736127
S1130BC0646F206E6F207365207265636F6E6F6350
S1070BD0650A0000AE
S9030000FC
