:100000000C9443000C9455000C9455000C9455002E
:100010000C9455000C9455000C9455000C9455000C
:100020000C9455000C9455000C9455000C945500FC
:100030000C9455000C9455000C9455000C945500EC
:100040000C941A010C9451010C9455000C94550019
:100050000C9455000C94F5000C9455000C9455002C
:100060000C9455000C94550061006C007A008800D7
:100070009600A400B200BB009901A001A701B10144
:10008000BB01C501CF0111241FBECFEFD8E0DEBFF9
:10009000CDBF21E0A0E0B1E001C01D92A330B207C6
:1000A000E1F70E94E2000C94EE010C94000090E055
:1000B0008830910508F067C0FC01EC5CFF4F0C94A0
:1000C000E801EEE7F0E0808181608083ECE7F0E01A
:1000D0008081887F808357C0ECE7F0E08081887F53
:1000E0008083808181608083EEE7F0E080818260A0
:1000F000808349C0ECE7F0E08081887F8083808145
:1001000082608083EEE7F0E08081846080833BC082
:10011000ECE7F0E08081887F80838081836080834A
:10012000EEE7F0E08081886080832DC0ECE7F0E0AE
:100130008081887F8083808184608083EEE7F0E027
:100140008081806180831FC0ECE7F0E08081887F40
:100150008083808185608083EEE7F0E0808180622B
:10016000808311C0ECE7F0E08081887F808380810C
:100170008660808308C0ECE7F0E08081887F808320
:10018000808187608083ECE7F0E0808180628083FB
:10019000808180648083EAE7F0E0808188608083EA
:1001A000808187608083808180688083089585B5A1
:1001B000856085BD8CED86BDEEE6F0E080818160D6
:1001C0008083089585E00E94570086E00E945700D2
:1001D00020E040E060E080E40E9482010E94D700BD
:1001E0008CB580688CBD7894FFCF1F920F920FB6AC
:1001F0000F9211248F93EF93FF9380910001882336
:1002000019F0813031F009C08091790080930201AA
:1002100004C08091790080930101EAE7F0E08081D9
:1002200080618083FF91EF918F910F900FBE0F90AF
:100230001F9018951F920F920FB60F9211248F9353
:10024000EF93FF9380910001882319F0813069F0CA
:1002500016C081E080930001ECE7F0E08081887FA8
:1002600080838081856080830AC010920001ECE762
:10027000F0E08081887F8083808186608083EAE7E8
:10028000F0E08081806480838CED86BD85B38160E1
:1002900085BBFF91EF918F910F900FBE0F901F9034
:1002A00018951F920F920FB60F9211242F933F9320
:1002B0004F935F936F937F938F939F93AF93BF936E
:1002C000CF93EF93FF93CEB5C33621F48091020113
:1002D0000E94E601C43621F4809101010E94E601EA
:1002E000FF91EF91CF91BF91AF919F918F917F91AE
:1002F0006F915F914F913F912F910F900FBE0F9093
:100300001F901895E82F84FF51C084B18C6284B986
:1003100084B18F7E84B980E18CBDE7708E2F90E030
:100320008730910508F04BC0FC01E45CFF4F0C9452
:10033000E8018CB58C7F8CBD8DB581608DBD3FC0D3
:100340008CB58C7F8CBD8DB58E7F8DBD38C08CB546
:1003500081608CBD8CB58D7F8CBD8DB581608DBD70
:100360002EC08CB581608CBD8CB58D7F8CBD8DB55C
:100370008E7F8DBD24C08CB581608CBD8CB58260B4
:100380008CBD8DB58E7F8DBD1AC08CB58E7F8CBD1A
:100390008CB582608CBD8DB58E7F8DBD10C08CB547
:1003A00083608CBD8DB58E7F8DBD09C084B18061A9
:1003B00084B984B1837D84B98CB58F7E8CBD8CB5B6
:1003C000462B242B282B20642CBD08958EBD089528
:1003D000EE0FFF1F0590F491E02D0994F894FFCFE4
:00000001FF
